:020000041000EA
:1000000000B5324B212058609868022188439860DF
:10001000D860186158612E4B002199600221596106
:100020000121F02299502B49196001219960352056
:1000300000F044F80222904214D00621196600F024
:1000400034F8196E01211966002018661A6600F04E
:100050002CF8196E196E196E052000F02FF8012189
:100060000842F9D1002199601B49196000215960AB
:100070001A491B48016001219960EB211966A021F2
:10008000196600F012F800219960164914480160C1
:100090000121996001BC002800D000471248134993
:1000A000086003C880F30888084703B5996A0420EC
:1000B0000142FBD001200142F8D103BD02B5186610
:1000C0001866FFF7F2FF186E186E02BD00000240BE
:1000D000000000180000070000035F00212200005C
:1000E000F4000018222000A00001001008ED00E03C
:1000F00000000000000000000000000074B24E7A12
:1001000000200420F7010010C3010010C5010010F9
:10011000C1010010C1010010C1010010C101001097
:10012000C1010010C1010010C1010010C701001081
:10013000C1010010C1010010C9010010CB01001065
:10014000CD010010CD010010CD010010CD01001037
:10015000CD010010CD010010CD010010CD01001027
:10016000CD010010CD010010CD010010CD01001017
:10017000CD010010CD010010CD010010CD01001007
:10018000CD010010CD010010CD010010CD010010F7
:10019000CD010010CD010010CD010010CD010010E7
:1001A000CD010010CD010010CD010010CD010010D7
:1001B000CD010010CD010010CD010010CD010010C7
:1001C00000BE00BE00BE00BE00BE00BE00F04BF888
:1001D000103800BEF2EB887198680510B8680510F9
:1001E0003402001090A31AE700202149086006C8D5
:1001F00081F3088810471F48006800282FD10DA4FC
:100200000ECC002902D000F012F8F9E71A491B4A77
:10021000002000E001C19142FCD1194988471949E9
:1002200088471949884700BEFDE701C901C29A42C3
:10023000FBD37047B8680510C0000020B81F00202D
:10024000B08705100000042000000420B0870510CE
:1002500000100420001004200000000070470B482C
:1002600004F0F2F90047EFF30580C0B270470000D8
:1002700008ED00E0000000D0B81F00202844002056
:10028000292F0010DD040010E52E00105756000045
:1002900006005250ABB36053A09F041006005250AA
:1002A000861C0302B09F0410060052505422A29DE7
:1002B000B89F041005005250DE65F468B087051041
:1002C000F8B5C04610B5064C2378002B07D1054B76
:1002D000002B02D0044800E000BF0123237010BDB2
:1002E000C020002000000000D88E0410044B10B580
:1002F000002B03D00349044800E000BF10BDC046F6
:1003000000000000C4200020D88E041070B5040046
:100310000D00012805D0002C02D1074B9D4207D0CB
:1003200070BD054B9942F6D1044808F087FCF2E70E
:10033000024808F093FCF3E7FFFF00003437002089
:10034000F0B5C64600B582B0050008001100984619
:1003500008AB1F78002F1DD0012F19D00122920168
:100360000A436B46D91D0A7001248440D026360604
:1003700074610122280048F077FD3B0042460021CD
:10038000280048F011FDB46102B080BCB846F0BD51
:100390000022E4E701204042F6E730B583B0802434
:1003A000644214436A461471537101248C40D02571
:1003B0002D066C61022201A948F056FDAC6103B024
:1003C00030BD000070B588B006AC082200212000C6
:1003D00005F0C6F901AB3E481A00010061C961C2CF
:1003E00021C921C23B4D6A780F210800104040000E
:1003F000C05A208012095200D25A62802A781140D5
:100400004900C95AA18012095200D35AE380D0236F
:100410001B06802212035A6100204CE0D0231B06E9
:10042000802464039C613DE001339BB22A4CA342CB
:10043000FAD9002301E001339BB2274CA342FAD939
:10044000002301E001339BB2234CA342FAD9D0230D
:100450001B068024A4039C61002301E001339BB2AE
:100460001D4CA342FAD9002301E001339BB21A4C80
:10047000A342FAD9002301E001339BB2164CA342F8
:10048000FAD94908013A92B2002A12D0430006ACC8
:100490001B5B0B40541E2341C0D1D0231B0680247C
:1004A00064035C61D0231B068024A4035C610023E9
:1004B000BCE7013080B2032803D8802109010C2257
:1004C000E2E7D0231B06802212039A6108B070BDB8
:1004D00044900410F4130020FFF90000F0B5C64664
:1004E00000B586B005F00AFB162001F05DF8D024B7
:1004F00024068023DB0398466362142001F054F83D
:1005000080235B036362152001F04EF88027BF0350
:100510006762132001F048F88026360366621920CE
:1005200001F042F880239B046362112001F03CF843
:1005300080239B02A36200220121112000F064FFAE
:10054000334D2B0001220421112000F0D1FF102097
:1005500001F02AF880235B02A3620022012110200F
:1005600000F052FF2B0001220421102000F0C0FFF8
:10057000122001F019F88023DB02A362002201217E
:10058000122000F041FF2B0001220421122000F074
:10059000AFFF0121022000F01FFF0121032000F026
:1005A0001BFF0121042000F017FF1D2000F0FCFFBD
:1005B00080239B0563621C2000F0F6FF80235B050F
:1005C000A3622B00012208211C2000F091FF43466A
:1005D000636167610F4D1049286808F0EFF82868DB
:1005E0000268C7215140CF220A4080235B010343A8
:1005F0001A6002AB0093002301936A46137266618E
:10060000286804330F221D21FFF7C7FEFEE7C0460E
:100610006D060010F013002050C30000F8B507006D
:1006200014004E1E11E06421200004F061F84D001A
:100630006421200004F05CF804006A1C0A4B9A5CF8
:10064000BA55721E5B5DBB54023E632CEBD8092C7D
:1006500007D96400621C044B9A5C7A701B5D3B7086
:10066000F8BD30343C70FBE7788F0410F0B5EBB088
:1006700005001022B749B84825F084F82800012465
:1006800009280ED963280BD9FA239B00984243D33B
:10069000B24B984242D9B24904F02AF80434EFE749
:1006A00001340CAB0A93002221000AA825F0B6FC05
:1006B0000B9B03932A0019000A98FFF7AFFF0B9AD0
:1006C0000A99A54825F05EF8040003680C3B1B68F6
:1006D000C318DE6F002E23D0337F002B22D02723B8
:1006E000F15C200024F0DEFF24F058FF0A980CABE8
:1006F000984203D00C9B591C05F04EF81C2D1BD0C2
:10070000112D00D123E3122D00D1D8E3102D01D1FA
:1007100000F042FC6BB0F0BD0234C2E70334C0E726
:100720001AF0A0FD30000EF0F5FB33689B690A213A
:10073000300098470100D4E7874C122289492000F5
:1007400025F020F823680C3B18680019C46F002CB2
:1007500020D0237F002B1FD02723E15C7E4E30006A
:1007600024F0A0FF24F01AFF7F4C804B186801236F
:100770000093230000221D21FFF7E2FD22787C4B2D
:100780009A7006227B49300024F0FCFF2678300066
:10079000012462E01AF066FD20000EF0BBFB236826
:1007A0009B690A21200098470100D7E70134210006
:1007B00012AB10932D2210A825F030FC320021003E
:1007C0001098FFF72BFF119A1099634824F0DAFF75
:1007D000040003680C3B1B68C318DE6F002E49D071
:1007E000337F002B48D02723F15C200024F05AFFF0
:1007F00024F0D4FE109812AB984203D0129B591CDF
:1008000004F0CAFF584C594B186801230093230089
:1008100001221D21FFF794FD2278554B5A700622C4
:1008200054494D4824F0AEFF2678300001240928B1
:100830002DD963282AD9FA239B00984279D3474BB4
:10084000984278D9464903F053FF0434EFE7023465
:10085000ADE7434903F04CFF04340928A7D96328C6
:10086000A4D9FA239B009842F1D33C4B9842F0D88C
:1008700003349CE71AF0F6FC30000EF04BFB3368B3
:100880009B690A21300098470100AEE7013421003E
:1008900018AB16932D2216A825F0C0FB32002100BC
:1008A0001698FFF7BBFE179A16992B4824F06AFF9B
:1008B000040003680C3B1B68C318DE6F002E3CD09D
:1008C000337F002B3BD02723F15C200024F0EAFE8D
:1008D00024F064FE169818AB984203D0189B591C5C
:1008E00004F05AFF204C214B186801230093230089
:1008F00002221D21FFF724FD22781D4B1A700622CB
:100900001C49154824F03EFF2678300001240928B0
:1009100033D9632830D9FA239B00984200D288E06B
:100920000E4B984200D886E00D4903F0E1FE0434F6
:10093000EDE70234ABE70334A9E71AF093FC30008B
:100940000EF0E8FA33689B690A21300098470100ED
:10095000BBE7C046D88E0410643400200F27000087
:1009600010270000EC8E0410F4430020F013002048
:10097000F4130020008F0410013421001EAB1C93DF
:100980002D221CA825F04AFB320021001C98FFF7FD
:1009900045FE1D9A1C99A84824F0F4FE040001228B
:1009A000A64924F0EFFE23680C3B1B68E318DE6FBA
:1009B000002E42D0337F002B41D02723F15C200052
:1009C00024F070FE24F0EAFD1C981EAB984203D080
:1009D0001E9B591C04F0E0FE994B9B781B0700D02E
:1009E0008EE6954C0D229749200024F0CBFE012283
:1009F0009249200024F0C6FE23680C3B1B681C199A
:100A0000E46F002C25D0237F002B24D02723E15C2A
:100A1000894C200024F046FE24F0C0FD09228A49BA
:100A2000200024F0AFFE864B1E78360930000124EA
:100A30004AE00234A1E703349FE71AF013FC3000C8
:100A40000EF068FA33689B690A213000984701006C
:100A5000B5E71AF007FC20000EF05CFA23689B69EA
:100A60000A21200098470100D2E70134210024AB7D
:100A700022932D2222A825F0D1FA320021002298BB
:100A8000FFF7CCFD239A22996B4824F07BFE0700E8
:100A90006B4B1B780F261E4030000124092821D9FA
:100AA00063281ED9FA239B00984237D3674B98429C
:100AB00036D9674903F01CFE0434EFE70234D5E76A
:100AC000634903F015FE04340928CFD96328CCD933
:100AD000FA239B009842F1D35C4B9842F0D8033440
:100AE000C4E7013421002AAB28932D2228A825F041
:100AF00095FA320021002898FFF790FD299A28994D
:100B0000380024F03FFE06000122524924F03AFE4C
:100B10004B4B5F783F093800012432E00234E1E7B3
:100B20000334DFE70134210030AB2E932D222EA8B1
:100B300025F074FA3A0021002E98FFF76FFD2F9AE6
:100B40002E99300024F01EFE07003D4B5B780F26E7
:100B50001E4030000124092821D963281ED9FA2318
:100B60009B00984237D3394B984236D9384903F025
:100B7000BFFD0434EFE70234D5E7354903F0B8FD93
:100B800004340928CFD96328CCD9FA239B00984292
:100B9000F1D32E4B9842F0D80334C4E7013421003E
:100BA00036AB34932D2234A825F038FA32002100D8
:100BB0003498FFF733FD359A3499380024F0E2FD7C
:100BC00006000122234924F0DDFD1D4B9F783F09DB
:100BD0003800012423E00234E1E70334DFE7013485
:100BE00021003CAB3A932D223AA825F017FA3A009F
:100BF00021003A98FFF712FD3B9A3A99300024F011
:100C0000C1FD07000E4B9B780F261E4030000124CB
:100C100084E00234E4E70E4903F06AFD0434092855
:100C2000DED96328DBD9FA239B009842F1D3074B26
:100C30009842F0D80334D3E764340020C4E00410B1
:100C4000F4130020088F0410188F04100F270000E1
:100C50001027000060FF04100134210042AB4093D4
:100C60002D2240A825F0DAF9320021004098FFF744
:100C7000D5FC419A4099380024F084FD06000122F9
:100C8000BA4924F07FFD33680C3B1B68F318DC6F16
:100C9000002C50D0237F002B4FD02723E15C300065
:100CA00024F000FD24F07AFC409842AB984203D037
:100CB000429B591C04F070FD3A983CAB984203D01B
:100CC0003C9B591C04F068FD349836AB984203D025
:100CD000369B591C04F060FD2E9830AB984203D02F
:100CE000309B591C04F058FD28982AAB984203D039
:100CF0002A9B591C04F050FD229824AB984203D043
:100D0000249B591C04F048FD9948FFF75BFBF7E46E
:100D10000234A2E7974903F0EBFC043409289CD97C
:100D2000632899D9FA239B009842F1D3924B9842B9
:100D3000F0D8033491E71AF095FA20000EF0EAF8A3
:100D400023689B690A21200098470100A7E704ABAC
:100D500006AA0492002205921A72884C153288491C
:100D6000200024F00FFD23680C3B18680019C46FA5
:100D7000002C58D0237F002B57D02723E15C7F48DD
:100D800024F090FC24F00AFCD0231B065B689B0136
:100D900055D4D0231B06802292045A61794B1B78CC
:100DA000012B52D0774B01221A70744C08327649CD
:100DB000200024F0E7FC23680C3B18680019C46F7E
:100DC000002C70D0237F002B6FD02723E15C6B4871
:100DD00024F068FC24F0E2FB6C4C002300221D216F
:100DE0002068FFF7DAFA624E737801221D2120682D
:100DF000FFF7D3FA337802221D212068FFF7CDFADE
:100E0000206804230F221D21FFF7C7FA3000FFF7E7
:100E1000D9FA049806AB984200D174E4069B591C99
:100E200004F0BAFC6FE41AF01DFA20000EF072F81C
:100E300023689B690A212000984701009FE7D0237F
:100E40001B06802292049A61A8E74E4B00221A707A
:100E50004A4C0A324E49200024F094FC23680C3B93
:100E600018680019C46F002C11D0237F002B10D0FC
:100E70002723E15C414824F015FC24F08FFB434B11
:100E8000186800230F221D21FFF787FAC1E71AF027
:100E9000E9F920000EF03EF823689B690A21200042
:100EA00098470100E6E71AF0DDF920000EF032F86D
:100EB00023689B690A2120009847010087E7314B8E
:100EC0001B78002B00D021E42C4C09223149200052
:100ED00024F058FC23680C3B18680019C46F002CE0
:100EE00038D0237F002B37D02723E15C234824F020
:100EF000D9FB24F053FB1E4A53780133DBB2537005
:100F00000F221A40092A04D91B0901331B01184A70
:100F10005370174B5B785F2B05D9154B00225A7025
:100F20001A7801321A70124B1B780F221A40092AC4
:100F300004D91B0901331B010D4A13700C4B1B789C
:100F4000232B02D90A4B00221A700948FFF73AFAFC
:100F5000FFF7DCFB1AF086F920000DF0DBFF2368B9
:100F60009B690A21200098470100BFE7C4E00410F4
:100F7000F4130020102700000F2700006434002025
:100F8000248F0410EC130020488F0410F01300206D
:100F90003C8F0410548F0410C54B1B78002B01D0DC
:100FA000FFF7B8FBC34C0B22C349200024F0EAFB37
:100FB00023680C3B18680019C46F002C27D0237FCE
:100FC000002B26D02723E15CBA4D280024F06AFBD1
:100FD00024F0E4FAB94C6378013B63700A22B84903
:100FE000280024F0CFFB65782D092800012409286A
:100FF0001AD9632817D9FA239B0098423CD3B14BE6
:1010000098423BD9B04903F073FB0434EFE71AF080
:1010100029F920000DF07EFF23689B690A2120003A
:1010200098470100D0E70134210048AB46932D22B8
:1010300046A824F0F3FF2A0021004698FFF7EEFAB5
:10104000479A46999B4824F09DFB06009B4B5B7892
:101050000F251D4028000124092812D963280FD923
:10106000FA239B00984268D3964B984267D99649D9
:1010700003F03EFB0434EFE70234D5E70334D3E753
:10108000013421004EAB4C932D224CA824F0C6FF16
:101090002A0021004C98FFF7C1FA4D9A4C99300074
:1010A00024F070FB040003680C3B1B68C318DD6F61
:1010B000002D46D02B7F002B45D02723E95C200054
:1010C00024F0F0FA24F06AFA4C984EAB984203D020
:1010D0004E9B591C04F060FB469848AB984203D0E5
:1010E000489B591C04F058FB744B5B780F221A4044
:1010F000092A06D91B09013B1B01092213436F4A28
:1011000053706E4B5B78592B05D96C4B59225A7032
:101110001A78013A1A70694B1A780F231340092B79
:101120001BD8664B1B78232B02D9644B23221A70E1
:101130006248FFF747F9FFF7EDFA0234A1E70334FD
:101140009FE71AF08FF828000DF0E4FE2B689B69EA
:101150000A21280098470100B1E709225B49554858
:1011600024F010FB554B1D782D09280001241FE0A9
:101170000134210054AB52932D2252A824F04EFF8B
:101180002A0021005298FFF749FA539A5299494888
:1011900024F0F8FA0600494B1B780F251D40280063
:1011A00001246BE00234E4E7474903F0A1FA043478
:1011B0000928DED96328DBD9FA239B009842F1D3B2
:1011C000404B9842F0D80334D3E7013421005AABA6
:1011D00058932D2258A824F021FF2A002100589866
:1011E000FFF71CFA599A5899300024F0CBFA040002
:1011F00003680C3B1B68C318DD6F002D4BD02B7FA1
:10120000002B4AD02723E95C200024F04BFA24F07D
:10121000C5F958985AAB984203D05A9B591C04F010
:10122000BBFA529854AB984203D0549B591C04F01B
:10123000B3FA224C23780F22934309332370063AE2
:1012400022491C4824F09EFA25782D092800012403
:1012500009283ED963283BD9FA239B00984260D3E2
:10126000184B98425FD9184903F042FA0434EFE76B
:101270000234ABE7144903F03BFA04340928A5D93A
:101280006328A2D9FA239B009842F1D30D4B9842D0
:10129000F0D803349AE719F0E5FF28000DF03AFE84
:1012A0002B689B690A21280098470100ACE7C046DB
:1012B000EC13002064340020608F0410F41300202D
:1012C0006C8F04100F27000010270000188F0410E7
:1012D0000134210060AB5E932D225EA824F09EFEB7
:1012E0002A0021005E98FFF799F95F9A5E993248CB
:1012F00024F048FA0600314B1B780F251D402800CA
:101300000124092812D963280FD9FA239B00984297
:1013100041D32B4B984240D92A4903F0E9F90434D0
:10132000EFE70234D5E70334D3E70134210066AB9D
:1013300064932D2264A824F071FE2A002100649891
:10134000FFF76CF9659A6499300024F01BFA0400E9
:1013500003680C3B1B68C318DD6F002D1FD02B7F6B
:10136000002B1ED02723E95C200024F09BF924F0F9
:1013700015F9649866AB984203D0669B591C04F03B
:101380000BFA5E9860AB984200D1CAE6609B591C8C
:1013900004F002FAC5E60234C8E70334C6E719F0E0
:1013A00061FF28000DF0B6FD2B689B690A2128001B
:1013B00098470100D8E7C04664340020F4130020A9
:1013C0000F2700001027000010B502490120FEF78A
:1013D0009DFF10BDFFFF000010B58300084A944632
:1013E00063441C6840226240C024144080225201A1
:1013F00013431C60C000034B9C466044416010BD19
:1014000004C001400040014080000B4B9C466044FA
:1014100000290DD00823002A0CD0042213430268AF
:1014200053400C2213408022520110430360704746
:101430000023F0E70022F1E704C0014070B504008A
:10144000D0231B061D68AA000C4BD358002B0AD0D2
:10145000002803D0AD00094BEC5070BD08490D20A9
:1014600000F01EFBF6E70028F7D0AD00034BE85074
:10147000002203490D2000F0FBF9EEE7083D0020B3
:1014800011150010072303409B00C00899403C3011
:101490008000014BC150704700400140F8B5070083
:1014A0000C0016001D00FFF7EDFFFB089B00ED1878
:1014B0000720384080008440002E04D080239B0108
:1014C0001D432C60F8BDC0239B011D432C60F9E730
:1014D00010B5D0231B061B68002B03D0024BFFF76F
:1014E000DDFF10BD014BFAE73041014000410140F2
:1014F00070B514001D00FFF7EBFF2800FFF79EFFFB
:10150000002C00D170BD01210D2000F05DF9F9E73C
:10151000F0B5D6464F464646C0B5D0231B061F68D9
:10152000BA001D4BD3589846002F03D01B4B994649
:10153000002623E01A4B9946FAE724090135002CCE
:101540001BD033000833AB4217D90F231A002240B7
:1015500092462342F1D0BB00124A9A580123AB4075
:101560001342EAD151462800FFF78CFF4346002B77
:10157000E3D051462800C047DFE708361D2E06D8C5
:10158000F30808339B004A469C583500D7E7E0BC77
:10159000BA46B146A846F0BD083D002030410140A2
:1015A00000410140D441002010B501238340D022E6
:1015B0001206936293610521FFF70EFF10BD000034
:1015C000EFF3108072B6034B1B68002BFBD0BFF308
:1015D0005F8F70472C0100D0BFF35F8F024B00225A
:1015E0001A6080F3108870472C0100D0F8B506000F
:1015F0000C001500FFF7E4FFE308F718F15C072281
:101600002240012393400B4205D1DBB20B433B70D8
:10161000FFF7E2FFF8BD2100280001F001FDF0B561
:1016200083B00600019114001F00FFF7C9FF00E01E
:101630000134BC420CD8E308F518F35C07212140C3
:1016400001228A401A42F3D1D2B21A432A7001E031
:1016500001246442FFF7C0FF002C02DB200003B02E
:10166000F0BD019B002BF9D0089801F0D9FC0000D7
:10167000034B1B6802201840431E9841C0B27047BC
:1016800000C00640002307E0054A9A189200BFF305
:101690005F8F0021116001331F2BF5D97047C046C1
:1016A00040000034054A1078431CDBB21370172B3E
:1016B00002D9130010221A707047C046F713002099
:1016C00000B583B00100044B00931F231822034888
:1016D000FFF7A5FF03B000BD58900410103D002097
:1016E000074B9B68103080001950BFF35F8FBFF32A
:1016F0005F8F044B0021196082F310887047C04649
:1017000000ED00E0240100D010B5091A081F0A4BB3
:101710009C466144094A914208D8C30706D4401048
:101720004005400D064B184380B210BD054B064ADC
:101730009921064801F0DAFBFC070000FE0F0000CB
:1017400000E0FFFF74900410DC920410A4900410D9
:1017500010B5091A04394C08090B08D14905490D7F
:10176000064A11430180064B2343438010BD054BBD
:10177000054AA121054801F0B9FBC04600F0FFFF72
:1017800000F8FFFFEC900410B0920410A490041035
:1017900001238340034A10681840431E9841C0B299
:1017A0007047C04600E100E0002904D0034B1860F8
:1017B000034B18607047034B1860FBE780E200E0C2
:1017C00000E100E080E100E010B501238340180053
:1017D000FFF7EAFF10BD000001238340014A1360B8
:1017E0007047C04600E200E0024B9B68103080006A
:1017F000C058704700ED00E010B5FFF7F5FF002876
:1018000005D0054BC01A2F2803D8012010BD002099
:10181000FCE70020FAE7C046F813002070B504008A
:101820000D00EFF3108672B60C4B1B68002BFBD03B
:10183000BFF35F8F2000FFF7D7FF094B984201D01D
:10184000A84205D1320029002000FFF749FF70BDF2
:10185000044B054A7C21054801F048FB240100D0D7
:10186000CD010010FC90041010930410A4900410FB
:10187000F0B5DE4657464E464546E0B589B081464E
:1018800001911500EFF3108A72B6744B1B68002BA0
:10189000FBD0BFF35F8F724B0027DF57002F40DB79
:1018A0007C00E419A4006F4824180622A2566C4B51
:1018B0001A706D4B9A684B4610339B00D35898466C
:1018C0001E001B1A2F2B38D9684B98452FD105AE17
:1018D000674B33807B009B46D8198000614B98464C
:1018E000404402306349FFF70FFF7080624BB380C2
:1018F000FF23B371F571019B07935F44BF00474419
:101900000ECE0EC701231C43A04652464146484610
:10191000FFF7E6FE09B0F0BCBB46B246A946A046BA
:10192000F0BD564B564ACD21564801F0DFFA564BD2
:10193000534AD421534801F0D9FAC04340440C2102
:1019400002F0D6FE002912D101239E43B346330094
:101950000026DA79AA4211D90621595600290CDB52
:101960004A00521892001E003E4B9B18F1E7474B6D
:10197000434AE021434801F0B9FA1E00002E3BD053
:1019800005AB434A1A80813A5A800623F3560293E4
:10199000002B18DABD20000205AB9B469880029A06
:1019A0009A71DD71019A0792301D2100FFF7ACFE9C
:1019B000B080B7717B00DB199B002A4FFF185B4694
:1019C00007CB07C7A1E77800C0198000254BC018D6
:1019D0000430321DB388D90A1C2907D15B0559157B
:1019E000023149005118FFF78FFED5E7294B2A4AEB
:1019F000A721244801F07AFA05AE1D4B33807B0005
:101A00000293D8198000174A90460200424403927C
:101A1000901C1849FFF778FE7080039A101D5946F4
:101A2000FFF772FEB0801D4B5A464146521A524192
:101A300053431B0DB371F571019A0792029B9C46AB
:101A40006744BF0047440ECE0EC7114B5A46138061
:101A5000813B538001231C43A04656E7240100D05C
:101A600023440020F813002000ED00E0CD01001019
:101A700000A1FFFF2814002000BDFFFF34910410D7
:101A8000F8920410A49004105C9104108491041046
:101A900001480000F8910410E8920410AAAA00007E
:101AA000F0B5CE46474680B583B006000D00EFF393
:101AB000108872B6564B1B68002BFBD0BFF35F8FAC
:101AC000544B9A6834001034A300D758524B9F42AD
:101AD00007D0AF4200D199E00197504BFB1A2F2B52
:101AE00009D9424639003000FFF7FAFD03B0C0BC07
:101AF000B946B046F0BD3000FFF74AFE81460021EE
:101B00003000FFF761FEBFF35F8FFEF7ACFB0028EC
:101B100001D0844211D10123019C9C430022A3687F
:101B2000AB4212D00622A256002A0DDB53009B18AE
:101B30009B002200394CE418F1E72C21384B394A3C
:101B4000FF31394801F0D2F92200AB4257D10625C6
:101B50006557002D39DB6B005B199A002F4B9B18E2
:101B60009A68A260DA79E27106229A56A2719B798C
:101B70005BB2002B10DABD200002A0806B005B1965
:101B80009B00264AD318294A117899711570494645
:101B90003000FFF719FEA4E7201D6B005B199B00C6
:101BA0001E4A9B181A1D9B88D90A1C2907D15B0560
:101BB0005B15023359005118FFF7A6FDDDE71C4BFA
:101BC0001C4AA721184801F091F9002812D1002AD7
:101BD0000ED0FF239371184B9380144A1378A3718E
:101BE000164B0E49641A644163431B0D1370CEE714
:101BF000094FF2E7201D1249FFF7AAFDC7E7602150
:101C0000104B084AFF31084801F070F9024F68E7AD
:101C1000240100D000ED00E0CD010010F8130020F9
:101C200010920410C8920410A490041023440020C1
:101C3000F8910410E892041000BDFFFFAAAA00006A
:101C4000321400203492041070B5040001260643BB
:101C50002D4BF31A2F2B28D8FEF705FB00282BD08D
:101C6000EFF3108C72B6294B1B68002BFBD0BFF32F
:101C70005F8F274D22002449521A524155432D0DA2
:101C80006DB2244B9B6880001B58B3421BD00022CE
:101C9000032A32D853009B189B001B49CB189B7911
:101CA0005BB2AB421FD00132F2E7C2211A4B1B4A92
:101CB00049001B4801F01AF988211A4B174AFF31D5
:101CC000174801F013F9134B9B68174A1A50174B2A
:101CD0001A78A2711D70BFF35F8F0C4B00221A603F
:101CE0008CF3108870BD08005300991889004118C2
:101CF000FF268E710E4A8A80E9E7CC210D4B074AF8
:101D00004900074801F0F2F8F8130020240100D040
:101D1000AAAA000000ED00E03C9204109492041086
:101D2000A490041064920410CD01001023440020FC
:101D300000BDFFFF709204100022044B02E0044932
:101D400002C30132072AFAD97047C04600E400E016
:101D50008080808000B583B00100D0231B061B6803
:101D60000648C018064B009305230022FFF757FCD6
:101D7000002801DB1F23181A03B000BD1C440020FB
:101D800078920410024B9C466144890001607047C0
:101D90004000003470B505000C00080000F018FD8C
:101DA000200000F021FE0849200000F061FDFFF74F
:101DB00079FC064B9C466044800068602C75A4004A
:101DC000034BE55070BDC046D920001040000034E0
:101DD000C04100200A4B1A68EFF3108172B61368F5
:101DE000002BFCD0BFF35F8F054B1B68BFF35F8FE9
:101DF00000221A6081F3108840BF00200021704744
:101E0000E843002010B5002922D003681B7B9942CB
:101E10001ED8174B9C466144090183689C46614467
:101E20000C684968002A19D003681B7B9A4215D8B0
:101E300083680F488446624412019A1810685368F8
:101E4000020001208B4201D80ED00020C0B210BD8C
:101E5000084B094A3B21094801F048F8054B064A5E
:101E60003B21064801F042F8A242EFD8EDE7C04618
:101E7000FFFFFF0F84930410089604104093041092
:101E800010B500291ED0037B99421BD84B005B186C
:101E9000033B0468A4466344002919D0002A1DD0DE
:101EA000914221D0002A25D0047BA24222D8046886
:101EB00050008018033820188170197800291FD12C
:101EC0001A7010BD104B114A6821114801F00EF82C
:101ED000104B114A6F310E4801F008F80F4B0E4AB3
:101EE00070210B4801F002F80D4B0B4A7121084894
:101EF00000F0FCFF044B054A6821054800F0F6FF9E
:101F000041701A70DDE7C046B8930410749604104F
:101F1000D4930410289404105096041034940410A0
:101F20004094041070B506000D001400002914D070
:101F3000002A14D0806873689847002806D02200D1
:101F400029003000FFF79CFF280007E02A0021004D
:101F50003000FFF795FF200000E0100070BD080082
:101F6000FCE70000F0B583B00500009201930AABD6
:101F70001C780BAB1F78002C26D003685A7B944248
:101F800007D10123002B19D1002C3BD1200003B035
:101F9000F0BD002C0CD01A7B944209D81A6863005B
:101FA0001B19033BD3189B78002BEBD00123E9E7E7
:101FB0003E4B3F4A68213F4800F098FF3E4B3F4A66
:101FC00065213F4800F092FF03689C7B002CDBD02A
:101FD00012D01A7B94420FD862001219033A196882
:101FE0008C46624451789973002900D1D97300233B
:101FF000937053701370C7E72C4B2D4A68212D48FE
:1020000000F074FF002C3AD02B681B7B9C4236D822
:102010002C4BE3181B01AA6894466344009A1A608B
:10202000019A5A60089A9A60099ADA602E68002C20
:102030002BD030D0337B9C422DD863001B19033B3F
:1020400032689446634400229A705A701A70717B09
:1020500022003000FFF766FF7073844200D095E7DE
:10206000287D009A019B00F04BFC061E01D0002F3A
:1020700017D00C9B002B00D188E71E7086E7124B0F
:10208000124A3B210E4800F031FF114B114AA521A5
:10209000084800F02BFF054B054A6821054800F071
:1020A00025FF2868210000F053FEE2E7B8930410F2
:1020B00074960410D493041058940410809604105D
:1020C00040930410FFFFFF0F849304100896041040
:1020D0003C93041064960410F0B5DE4657464E4615
:1020E0004546E0B58BB00990002308938200B24BBF
:1020F000D658370032E0B14BB14A3F21B14800F029
:10210000F5FEB14BB14A3B21B14800F0EFFEB14BB7
:10211000B14A8C21AE4800F0E9FEB04BAE4A9021A6
:10212000AB4800F0E3FEA84BAD4A4021A84800F0C0
:10213000DDFE2A686B68099800F0E2FB00239A46EE
:1021400098467B68BFF35F8F00221A6086F3108881
:102150004346002B51D1002800D126E100F044FB7A
:1021600002000B1EC7DB0020002106900791786853
:10217000EFF3108672B601680029FCD0BFF35F8FC1
:10218000396888464C7B002C32D0BAD0097B8C420F
:10219000B7D8944965182D01B9688C4665442868FC
:1021A0006968801A99410029C3DC01D10028C0D197
:1021B0000021404600F0C2FDA042A8D12A686B6809
:1021C00006920793AB689846EB689A464346002B05
:1021D000A3D0002CA7D03B681B7B9C42A3D8631ED6
:1021E000FA68D35C08931B02184338610020A8E703
:1021F00000239A4698460020A3E7089B1B0223432E
:10220000994651461800C04705000E007A68EFF362
:10221000108B72B6136859424B41D9B2002BF9D1D9
:10222000BFF35F8F002E26DB002E52DD3B69002BB3
:1022300053D04B4572D100F0D7FA02000B1E73DB6E
:102240000100180052197341984202D804D19142FA
:1022500002D901225242D317002B6BDB00210491DB
:102260000131039102945146019141460091380099
:10227000FFF778FE49E03B69002BD5D04B451CD1D8
:10228000069A079B10001900521BB341994202D8CD
:1022900004D1904202D901225242D317002B12DB03
:1022A000002104910131039102945146019141466C
:1022B00000913800FFF756FE27E04B4B464A9F211E
:1022C000434800F013FE3D4B3D4A3F213D4800F09E
:1022D0000DFE002E01D1002DA8D13A68002C45D06A
:1022E000537B9C422CD1012100293FD1D37B002B71
:1022F00042D1D473002C52D03B681B7B9C424ED8F9
:10230000FA68013C135D0133135500233B617A6881
:10231000BFF35F8F13608BF310881FE7324B2E4A99
:10232000A2212B4800F0E2FD244B254A3F212548FD
:1023300000F0DCFD214B224A3F21224800F0D6FD6F
:10234000002C0DD0137B9C420AD863001B19033B61
:102350001068844663449B78002BC5D00121C3E7F5
:10236000224B234A6821234800F0C0FD224B234A18
:10237000F621204800F0BAFD002B0AD0117B8B42D9
:1023800007D85900CB18033B11688C4663445C7036
:10239000AFE7164B164A6821164800F0A7FD0A4B16
:1023A0000F4A40210A4800F0A1FD0BB0F0BCBB462B
:1023B000B246A946A046F0BDC0410020809404105A
:1023C000D49504109C94041084930410089604106F
:1023D00040930410EC940410EC9504100495041040
:1023E0002C960410FFFFFF0F10950410B8930410F3
:1023F00074960410D49304104C9504104096041065
:1024000010B50A4B5B68002B04D00A210848FFF77F
:10241000B9FC10BD054C2300064A1021206800F0CD
:10242000ADFB03212000FFF7B5FCEEE740140020D0
:10243000E8430020051E001010B5064B5B68002B1A
:1024400001D0044810BD044B044A5C21044800F04C
:102450004DFDC046401400207095041014960410E1
:1024600040930410F0B5DE4657464E464546E0B56B
:102470008BB0804616001F00149B9A46159B994608
:1024800016AB1B789B461F2302AA94466344002286
:102490001A7032E0002809D042461268127B90423E
:1024A00004D8421E4146C9688A5C48E0434B444A0E
:1024B0004021444800F01AFD0798002B75D05B4678
:1024C000002B72D04946D04704000D0003000B4397
:1024D00000D171E0002946DB00F086F906000F1EEE
:1024E00055DB36196F41B94202D804D1B04202D946
:1024F00001267642F717002F4FDB43465A68EFF369
:10250000108472B6136859424B41D9B20791002B1F
:10251000F8D1BFF35F8F1F3302AA9446634404933C
:102520000023039302934B460193534600933200DA
:102530003B004046FFF716FD031EABD102004146AB
:102540004968BFF35F8F00250D6084F31088002B6E
:1025500029D01F2302A98C4663441B78002BABD1E2
:1025600012021043A9E732003B00361BAF41BB42C9
:1025700002D804D1B24202D901267642F717002FC1
:10258000BBDA114B114A3F21114800F0AFFC0E4B52
:102590000E4A3F210E4800F0A9FC0B4B0B4A3F218D
:1025A0000B4800F0A3FC012040420BB0F0BCBB463E
:1025B000B246A946A046F0BD0798F6E784930410FA
:1025C0002C9604104093041080940410D4950410A9
:1025D0009C940410F8B504004268EFF3108572B6BD
:1025E000136858424341D8B2002BF9D1BFF35F8F33
:1025F000CBB22268567BB3421BD10120002848D0C1
:10260000206988422BD0090AC9B2002B2ED020683D
:10261000007B83422AD8581EE668305C88422BD063
:1026200000206368BFF35F8F00221A6085F3108873
:10263000F8BD002B0DD0167BB3420AD85E00F61809
:10264000033E1768BC466644B678002ED6D00120FB
:10265000D4E7134B134A6821134800F047FC852147
:10266000124B134A4900134800F040FC124B134A26
:102670004021104800F03AFC1900100000F068FBFF
:102680000028CED112210E4B094AFF31094800F033
:102690002DFC23698B42C4D100232361C1E7C046CE
:1026A000B893041074960410D493041094950410F5
:1026B000BC95041040930410849304102C960410CD
:1026C000B895041070B584B006000C00FFF7B4FE96
:1026D000002302930193194B009332002300FFF76C
:1026E000C1FE051E11DD20BFFFF7A6FE2900FFF782
:1026F00071FF134B5B6A9C421BD8114A926AB2422B
:102700001AD29C4213D0012014E00D4B5B6A9C420C
:1027100009D80B4A926AB24207D29C4201D00120EA
:1027200008E0002006E0002004E0012002E0002094
:1027300000E0002004B070BD0120FBE7D51D0010B3
:102740000040054070B5EFF305833F201840103876
:10275000EFF3108C72B6194B1B68002BFBD0BFF344
:102760005F8F012319008140154A5163154A127881
:102770001400C440234214D0114B5C6A8300124DF4
:102780005B599C4206D38300104C1B598A430D4968
:102790000A7007E00A4A031D9B00995899500023CC
:1027A00000E00023BFF35F8F044A002111608CF327
:1027B0001088002B00D0984770BDC046280100D07B
:1027C0000040054027440020F8430020F83B00204B
:1027D00010B50100024A0348FEF708FF10BDC046CD
:1027E000A096041022440020044B5B6A034A906ABE
:1027F0001900536A9942F9D17047C046004005401C
:10280000084B5B6A01E0074B5B6A8B42FBD301E03C
:10281000044B5B6A8B4203D1024B9B6A8342F7D322
:102820007047C0460040054070B504000D00FFF73A
:10283000DBFF02000B0020002900801859418B4269
:1028400002D804D1824202D901204042C117002996
:1028500002DBFFF7D5FF70BD024B034A3F2103485F
:1028600000F044FB80940410509704109C940410D2
:1028700070B504000D00EFF3108672B61B4B1B6899
:10288000002BFBD0BFF35F8F002D1CD02000FEF784
:10289000ABFF174B83420BD019002000FEF7BEFFA1
:1028A00001212000FEF790FF0123A340114A13608D
:1028B000A400114BE550BFF35F8F0C4B00221A6050
:1028C00086F3108870BDA2000B4B0021D15001226D
:1028D000A2400A490B7893430B7005492000FFF78B
:1028E000DFF800212000FEF76FFFE4E7280100D0A9
:1028F0004527001038600540F83B002027440020A1
:10290000F0B5DE4600B584B00400150001921E004B
:102910000293FFF769FF03958E4202D84ED185429C
:102920004CD9EFF3108B72B6274B1B68002BFBD0F2
:10293000BFF35F8F254A17780125A540EBB23B43D3
:102940001370234B5D63221D92000199D150A200A8
:102950002049029850501B6A2B4212D11C4B1B6C11
:102960002B4208D00020BFF35F8F174B00221A6064
:102970008BF3108823E0184B184AC121184800F047
:10298000B5FAFFF731FF8E4214D802D1039B834280
:1029900010D80E4B1B78BB420ED00D4B1D625D63F1
:1029A0001F2004400123A3400E4A1360074B1F70F1
:1029B0001E38D8E70020D6E70120D4E7012004B074
:1029C00080BCBB46F0BDC046280100D02744002093
:1029D00000400540F8430020C496041034970410CA
:1029E000E896041080E200E0EFF3108C72B60B4B17
:1029F0001B68002BFBD0BFF35F8F01238340084A85
:102A0000136208490A789A430A70BFF35F8F034B39
:102A100000221A608CF310887047C046280100D04D
:102A2000004005402744002010B500291ED0037B3C
:102A300099421BD84B005B18033B0468A4466344CF
:102A4000002919D0002A1DD0914221D0002A25D07A
:102A5000047BA24222D80468500080180338201852
:102A60008170197800291FD11A7010BD104B114ABE
:102A70006821114800F03AFA104B114A6F310E48A4
:102A800000F034FA0F4B0E4A70210B4800F02EFA7A
:102A90000D4B0B4A7121084800F028FA044B054AF7
:102AA0006821054800F022FA41701A70DDE7C0463F
:102AB000B893041060980410D49304102894041060
:102AC0004C980410349404104094041070B506001F
:102AD0000D001400002914D0002A14D080687368F7
:102AE0009847002806D0220029003000FFF79CFFFD
:102AF000280007E02A0021003000FFF795FF2000A2
:102B000000E0100070BD0800FCE7000010B50023D5
:102B1000437301338373037BC3730123027B9A42A4
:102B200014D9002B0CD0027B934209D85A00D2183A
:102B3000033A01688C4662440133DBB25370EDE71F
:102B40000B4B0C4A68210C4800F0D0F9002A09D040
:102B5000924207D8016853009A18033A8A18002352
:102B6000537010BD024B034A6821034800F0BEF9C0
:102B7000B893041060980410D493041010B5017336
:102B800042608360FFF7C2FF10BD000070B5040013
:102B9000081E00D170BD002934D0237B994231D862
:102BA0004B005B18033B2268944663445A78002A22
:102BB000F0D02DD0237B9A422AD853009B18033B98
:102BC00021688C4663445D7800215970002825D027
:102BD000237B984222D843001B18033B21688C4674
:102BE00063440021597001002000FFF76FFF0600C9
:102BF00029002000FFF7CAFF020031002000FFF784
:102C000065FFC7E7084B094A6821094800F06EF9DB
:102C1000054B064A6821064800F068F9024B034A52
:102C20006821034800F062F9B8930410609804101A
:102C3000D493041070B505000C001600002928D0AC
:102C40002DD0037B99422AD84B005B18033B0268C6
:102C5000944663445A78002A27D19A78002A2AD1C8
:102C60001978FFF793FF0300002E03D0EA7B002AB8
:102C700027D1EC73002B37D1002C49D02B7B9C4201
:102C800046D82B6861000C19033C1C1900236370A3
:102C900070BD224B224A3821224800F027F9224BEE
:102CA000224A6821224800F021F9224B1C4A3A218D
:102CB0001C4800F01BF9204B194A3B21194800F031
:102CC00015F9002A0AD0297B8A4207D851008A18B0
:102CD000033A29688C4662445470CAE7124B134A7F
:102CE0006821134800F002F9002B0BD02A7B934295
:102CF00008D843001B18033B2A689446634400220B
:102D00009A70B9E7084B094A6821094800F0EEF8C3
:102D1000054B064A6821064800F0E8F86897041059
:102D20003898041070970410B89304106098041039
:102D3000D4930410B4970410DC97041070B5040009
:102D40000A00457B2900FFF775FF6073280070BDFE
:102D500070B50400002967D0437B8B420ED0002958
:102D600011D0037B99420ED84B005B18033B0268DD
:102D7000D0188378002B0CD1002056E00121FFF7FA
:102D8000DDFF012051E0294B294A6821294800F044
:102D9000ADF8002B20D0227B93421DD85A00D318C7
:102DA000033B2268D2182568EB5C8B421AD0002BBB
:102DB0001BD0227B934218D85A00D318033B2268B9
:102DC000D21853788B4216D0002BF0D11A4B1B4AE5
:102DD00067211B4800F08AF8144B154A68211548F2
:102DE00000F084F84378137007E0104B104A682114
:102DF000104800F07BF843785370002383704370D1
:102E000001222000FFF716FF0200617B814205D0FE
:102E10002000FFF75BFE6073012006E0094B074AC4
:102E20006D21074800F062F8002070BDB8930410CF
:102E300060980410D4930410709204102098041029
:102E4000709704100098041010B50400FEF72AFCD7
:102E500001002000FEF796FFFF232371BFF35F8F71
:102E600010BD10B50400FEF71DFC01002000FEF7A8
:102E700089FFFF23237100236371BFF35F8F10BDB0
:102E8000034B9C46614489000160BFF35F8F70472C
:102E90004000003410B504000120FEF711FC0100D1
:102EA0002000FFF7EDFF10BD00BEFDE703000A4A5A
:102EB0001268002A08D0084A1068C318074A9A42C4
:102EC00006D3054A13607047034A05491160F2E7CB
:102ED00001204042F7E7C046B03D0020000004203A
:102EE0002844002010B5FFF7DFFF000010B582B0C6
:102EF0000C001900002A0CD0084B002A0BD00192BC
:102F0000009323000200064802F0ECFD0120FFF7C9
:102F1000CBFF044BF1E7034AF1E7C04640990410A8
:102F200050990410C4D4041070B52B4B2B4A1A606E
:102F30002B4B2C4A1A602C4B9A682A4B9343FAD19C
:102F40002A4C01E008CC9847294B9C42FAD300F068
:102F500001F9234B274A1A60234B9B68DB43DB01B3
:102F6000FAD1254B40229A675A671A67DA66234CD2
:102F700009E0234B234A83212348FFF7B7FF2000B2
:102F8000FFF762FF0834214B9C4209D22368002BD3
:102F9000F5D0012BEDD12000FFF763FF0834F2E7F5
:102FA0001B4CA1681B4DC022280002F0DFFBA5606E
:102FB000FDF759F9002800D000BEFEF763FBFEF7CD
:102FC000BBFEFFF71DFA144C01E008CC9847134BE9
:102FD0009C42FAD370BDC04600E00040BFCDFBFE6E
:102FE00000F00040FE7F3C0000C00040801F002039
:102FF000901F0020FFFFFF0100F00140781F00201C
:1030000080990410FC990410A0990410801F0020DE
:1030100000ED00E000000020901F0020B81F0020FD
:103020000FB400B583B0084802F02AFD049B002BC2
:1030300007D005A90191180002F032FD034802F003
:103040001FFD0120FFF730FFEC990410C4E00410CD
:10305000F8B5DE4657464E464546E0B505000F003A
:1030600092460A9A93424ED31A0E91461E020A9A2B
:1030700000233000494601F07DFB80466C00641956
:10308000A4002F4B9C4664446368834200D2606076
:103090002B1FDBB29B46012B3BD9C0239B01234353
:1030A000802212011A60AB00264A9958002905D0E7
:1030B000506901F01DFB01300138FDD153465A0122
:1030C00023685A40E0231A4080235B0123431A609F
:1030D0005A46012A28D980239B01234380221201CA
:1030E0001A6043466360424600233000494601F0BF
:1030F00041FBAD00134B58510120F0BCBB46B2461A
:10310000A946A046F8BD104B104A2D211048FFF7E4
:10311000EDFE012FC1D1C0239B01234303221A607E
:10312000A368DB07FCD5C9E72168794003220A4080
:103130001A60A2680123BB401342FAD0CBE7C04615
:1031400000800040143D00200C9A0410709A041076
:10315000209A041030B583B00C2000F021F9FEF75E
:1031600087FA00280DD0002304E099002D4A2E484C
:1031700088500133092BF8D92A4B2C4A5A6203B0E4
:1031800030BD2B4B00229A6700F07CF9294B0122BD
:103190001A60274B5B6C012BFBD1274B03221A6073
:1031A000234B9B6B012BFBD1013300930433234A48
:1031B0000121234800F054F805230093214A0121FE
:1031C000214800F04DF8214B0093002202210420F9
:1031D000FFF73EFF1E4D00952B0000220121052028
:1031E000FFF736FF104C0094230000220021072037
:1031F000FFF72EFF00942300002200210820FFF794
:1032000027FF0A4B00932300002200210920FFF72B
:103210001FFF00952B00002200210620FFF718FF5A
:10322000ADE7C046143D0020006CDC021BB7000077
:10323000008000403CB0004030B00040002F685992
:1032400000800240008C864700C00240001BB7008F
:10325000405973078000014BC0587047143D00204F
:10326000F0B5C64600B504000F0090461D000C20C6
:1032700001F03EFA06003D4A42443D4B9A4243D893
:1032800043011B1A9901C91AC9000918890140464E
:1032900001F02EFA0200103A98235B009A4239D8C6
:1032A0006B1E062B3CD8069B013B062B38D8069B91
:1032B0009D423BD343461A09B2423DD32D04069B9F
:1032C0001E0335432368002B3CDB2A4B9C424AD02B
:1032D00080225201284B1A60284B1A60284B9B68A9
:1032E00011009943FAD12760A060231DC0229201EA
:1032F0001A43212313602368002BFCDAE5600823BE
:10330000136080BCB846F0BD1E4B1F4A11211F48F8
:10331000FFF7ECFD1E4B1C4A19211C48FFF7E6FD88
:103320001C4B194A1C211948FFF7E0FD1A4B164A9D
:1033300022211648FFF7DAFD184B134A25211348BE
:10334000FFF7D4FD22683F231340BB42BDD1A368E1
:103350001B051B0D8342B8D1E368EE22D202134055
:10336000AB42B2D1CDE780229201B3E780E84BD3E4
:1033700080F8A93200C0024000E0004000F00040A8
:1033800000C00040809A0410C49B0410E09A04100E
:10339000289B0410449B0410909B0410A89B0410CD
:1033A00080239B000343014AD3627047008005409D
:1033B000024B1A68024B5A607047C046B841002061
:1033C0000080054010B50200164B8020C005186033
:1033D000154B1648186000290AD0154BE021C90486
:1033E0001960002A09D1124B802212061A6010BD02
:1033F0000C4BE021C9041960F3E753019B1A9800B4
:10340000801800010B4B186080235B04984202D3A4
:10341000084B094A1A60FFF7CBFF054B8022D20503
:103420001A60E4E700B0054008200140FCFF0100FD
:1034300000A00540B8410020FFFFFF0010B50300C9
:1034400010000C4A8024E4051460002B0DD00122EA
:103450001343094A094CD461094C5C40146251621F
:1034600093620021FFF7AEFF10BD034B0022DA612B
:10347000F7E7C04600B0054000800540D3C007B064
:103480002D3FF84F064BAA2212011A602F22DA6054
:10349000044B054A1A60024B5B68002BFBDA70474D
:1034A000004002400060024000B0FA009A4200D2A0
:1034B00088547047704710B5002802D00B684968DF
:1034C000984710BD0100002007E083001B185B0037
:1034D000501C08601078C01830380A681378303BE8
:1034E000DBB2092BF1D97047F0B5DE4657464E46A0
:1034F0004546E0B583B093461F000C9B9A460D9C51
:103500000E9B99460F9B9B0703D0B8460F00060001
:1035100022E00192A34688464E46B9460700B442CF
:1035200007D2551C4B4641462020B84701342A009B
:10353000F5E73D004F465C46019B9B46B14646463B
:10354000B84637002E0007E0013C551C5346185D75
:1035500043463900B0472A00002CF5D135003E0023
:1035600047460F9B9B0707D4100003B0F0BCBB4637
:10357000B246A946A046F0BDB0464E46B9462F0019
:103580005D46531BB342EFD2541C4B4641462020AC
:10359000B8472200F5E7F0B5CE46474680B585B07E
:1035A000944698460C9D0D9C0EAB1B789946109A3C
:1035B000119B129EB7071CD4002B0CD0F7070AD51D
:1035C0004F46002F02D10C37374204D0013B02E0B6
:1035D00030272F550134944201D21F2CF8D9F70718
:1035E00007D59C4205D21F2C03D830272F55013414
:1035F000F5E7F70615D5770505D4002C03D09442DE
:1036000024D09C4222D00F9A102A2BD00F9A102A35
:1036100030D00F9A022A35D01F2C02D830222A55DA
:1036200001341F2C05D84A46002A31D02D222A55B4
:103630000134039602930194009543466246FFF7D6
:1036400053FF05B0C0BCB946B046F0BD621E012CA8
:1036500006D00F9F102F01D01400D4E7023CD2E710
:103660001400D0E7B206D1D41F2CCFD878222A5527
:103670000134D1E7B206CCD51F2CCAD858222A551E
:103680000134C9E71F2CC7D860322A550134C3E77B
:10369000720703D52B222A550134CAE73207C8D551
:1036A00020222A550134C4E7F0B5DE4657464E467F
:1036B0004546E0B593B081468A46089209931CAB13
:1036C00010CB1B789B461E9D219B9846002C03D156
:1036D000102342469A4390468023DB0046461E4014
:1036E00042461A4212D0002C22D000260EE030337F
:1036F000D9B2771C0AAB99552900200000F0F8FFD9
:10370000AC4216D31F2F14D83E000400290020001D
:1037100000F0EEFFCBB2092BE9D94246920605D55F
:103720004121C918C9B20A39C9B2E2E76121F8E7F3
:10373000270043460693209B05931F9B0493039504
:103740005B46029301970AAB0093099B089A514686
:103750004846FFF720FF13B0F0BCBB46B246A9466F
:10376000A046F0BDF0B5DE4657464E464546E0B5AC
:1037700095B0089009910A920B931E9E1F9C20AB56
:103780001B789B46229B9946239D269B9A46330095
:10379000234303D1103352469A4392468023DB00E1
:1037A00057461F4052461A4219D0330023432DD0AA
:1037B000002714E03033DAB27B1C98460CABDA55A4
:1037C0004A462B003000210000F0D4FFA5421FD84C
:1037D00019D043461F2B1BD8474606000C004A460B
:1037E0002B003000210000F0C5FFD3B2092BE1D936
:1037F0005246920605D54122D218D2B20A3AD2B226
:10380000DAE76122F8E7B145E3D901E00023984601
:1038100053460693259B0593249B04934B460393A1
:103820005B460293434601930CAB00930B9B0A9AB1
:1038300009990898FFF7AFFE15B0F0BCBB46B24639
:10384000A946A046F0BD0000F0B5DE4657464E46FC
:103850004546E0B591B083468A460C9298461A9C3C
:1038600008941B9D099522002B002000290001F0DF
:1038700018FA002800D0E5E001225242D74B200080
:10388000290001F009FA002800D0DBE001225242B1
:10389000D34B2000290001F0E9F9002800D0D1E045
:1038A00000220023089E3000099D290001F0DEF966
:1038B000002800D0DDE00898099906900791802340
:1038C000DB001E9A1A400D921E9A1A4201D106235D
:1038D0001C930698079904000D000A000600024395
:1038E00000D1D1E0080D4005400DBE4CA446604417
:1038F0000A03120BBC4B13431F0001F0E5F9BB4A4E
:10390000BB4B01F068F9BB4ABB4B01F03DF9040029
:103910000D000022B94B3000390001F02CF9B84AF3
:10392000B84B01F058F902000B002000290001F00B
:103930002BF901F0E1F9814601F0C6F904000D0010
:10394000B14AB24B01F047F90022B14B01F01CF92A
:1039500001F0D2F90600AF4AAF4B2000290001F078
:103960003AF904000D00300001F0AEF9AB4AAC4B5F
:1039700001F031F902000B002000290001F0FBF8F2
:1039800004000D0002000B0001F025F90A900B91D4
:10399000A44BF31800261F0522002B00200029004D
:1039A00001F0F2F80E900F9122002B0000208021F0
:1039B000C90501F0E0F804000D0000229A4B0A98B6
:1039C0000B9901F0EAF80022984B01F0DDF80200B3
:1039D0000B000A980B9901F0E0F80022944B01F0DB
:1039E000D3F802000B000A980B9901F0D6F80200F8
:1039F0000B002000290001F0C7F802000B000E9810
:103A00000F9901F0CAF80022774B01F0BDF832009F
:103A10003B0001F0E0F806000F0004000D00069ADC
:103A2000079B01F039F9002830D001235B429C4606
:103A3000E14400227D4B3000390001F0AEF8040073
:103A40000D0023E01E9B04931D9B03931C9B02937C
:103A5000089A099B0092019343460C9A5146584696
:103A600000F0FCF811B0F0BCBB46B246A946A04637
:103A7000F0BD0023002406930794069680231B06BE
:103A80009C46654407951AE7002399464B466333E5
:103A9000C62B1ED804261E9B1B0526D52B002343B0
:103AA0000FD0644A644B0698079901F0EDF800289E
:103AB00079D00022614B0698079901F0D7F80028C9
:103AC00071D01C9B4B4506DD4A46981A431E1C9339
:103AD00003E00526DFE700231C938023DB001E9A0A
:103AE0001A431E920026002399461D9B9E4264D2D3
:103AF0009F1B02231E9A1A400A921E9A134202D05A
:103B0000002E00D000274B46002B07D022002B00B0
:103B10000698079901F041F80690079100220023CA
:103B20000898099901F0A2F8002848D1444B1E9A40
:103B30001340049303971C9B0293069B079C0093DE
:103B4000019443460C9A5146584600F087F8002EDF
:103B500000D187E71E9B9B063DD54525441C434667
:103B6000020051462800D8474B46DA179B185340AD
:103B700005220592013E0496002203920A32029227
:103B80004A46D00F019000934346220051465846C2
:103B9000FFF78AFD0A9B002B00D163E702005F4616
:103BA0000C9E1D9D54E01C9B002B9ED00D9B002B5A
:103BB0009BD01C9B013B1C9397E7002799E7069C31
:103BC000079D2200290080200006844661440B00E6
:103BD00006920793AAE76525C0E7C046FFFFEF7F7F
:103BE000FFFFEFFF01FCFFFF0000F03FFB799F505C
:103BF0001344D33FB3C8608B288AC63F0000F83F08
:103C000061436F63A787D23F71A379094F930A403D
:103C10000000E03F1655B5BBB16B0240EF39FAFE2C
:103C2000422EE63FFF03000000002C40000024402D
:103C3000000018402D431CEBE2361A3F80842E41D1
:103C4000FFF7FFFF541C434651462020B84722008F
:103C5000931BAB42F6D3100004E7C046F0B5DE4636
:103C600057464E464546E0B595B0069007919346B7
:103C70009946209F1E9A1F9B1000190001F011F811
:103C8000002831D101225242BF4B1E981F9900F0EB
:103C9000EDFF002837D101225242BC4B1E981F99DC
:103CA00000F0FAFF00283DD10022B94B1E981F9961
:103CB00000F0F2FF002850D10022B64B1E981F9949
:103CC00000F0D4FF002848D1002200231E981F993D
:103CD00000F0CCFF002850D100239846229B5B05C2
:103CE00000D4B6E0002458E0229B0393219B02936A
:103CF00003230193A84B00934B465A460799069815
:103D0000FFF7F2FB0EE1229B0393219B0293042316
:103D10000193A24B00934B465A4607990698FFF72A
:103D2000E3FBFFE00423229A1A4022990B4210D0B1
:103D30009B4B002A0FD004222299039121990291D2
:103D4000019200934B465A4607990698FFF7CCFB21
:103D5000E8E0944BEDE70322EEE7229B0493219BDE
:103D6000039302971E9B1F9C009301944B465A4657
:103D700007990698FFF768FDD4E01E9A1F9B002064
:103D8000002100F0F8FE1E901F9101239846A5E740
:103D90000CAB30221A55013F01341F2C01D8092FDA
:103DA000F6D81E981F9900F0A7FF050000F08CFFC1
:103DB00002000B001E981F9900F0DDFEFA007A4BFE
:103DC0009B181A685B680A920B9300F004FF089036
:103DD000099100F0B5FF060000F072FF02000B0031
:103DE0000898099900F0C7FE0890099100226F4BCE
:103DF00000F052FF00282ED00136300000F060FFA6
:103E000002000B000A980B9900F036FF002801D041
:103E100001350026002F2CD1280000F055FF0200AC
:103E20000B001E981F9900F0A6FE06000F0000224E
:103E30005E4B00F01BFF002846D100225B4B300098
:103E4000390000F029FF00283ED1EB073CD50135B1
:103E50003AE0062746E70022544B0898099900F0FB
:103E600005FF0028D6D1002E01D0F307D2D50136A8
:103E7000D0E7AA461F2C11D8013F0A21300000F0DC
:103E800037FC651C30310CAB19550A21300000F0AD
:103E90002FFC092E0ED906002C00EBE755461F2CEF
:103EA0000CD87B1E002F09D00CAA302111551F0001
:103EB0000134F4E72B0055461C00F0E71F2C03D813
:103EC0000CAB2E221A5501341F2C10D80A212800C1
:103ED00000F0E6FB661C30310CAB19550A212800B6
:103EE00000F0DEFB051E01D03400EDE734000323B3
:103EF000229A1340012B1CD01F2C06D84346002BBE
:103F000032D00CAB2D221A550134229B0393219BF6
:103F1000029301940CAB00934B465A4607990698BE
:103F2000FFF7E2FA15B0F0BCBB46B246A946A04680
:103F3000F0BD219B002B13D04346002B02D10C3344
:103F400013420FD0219B013B2193190003E00CABDE
:103F500030221A5501348C42CED21F2CF7D9CBE730
:103F60002199F8E72199F6E7229B5B0704D50CAB72
:103F70002B221A550134C8E7229B1B07C5D50CAB71
:103F800020221A550134C0E7FFFFEFFFFFFFEF7F4C
:103F900065CDCD4165CDCDC1DC9B0410E09B041007
:103FA000D49B0410D09B0410C89D04100000E03F77
:103FB000F0B5DE4657464E464546E0B593B08246DC
:103FC0008B4690461193002900D1EBE2002755461D
:103FD000119B1878002800D1E7E2252809D07C1C25
:103FE00043463A005946A847119B013311932700D5
:103FF000EEE7013311930024119A11780B00203B56
:10400000D8B2102803D88300D048C3589F460B006D
:10401000303BDBB2092B2CD92A292FD000230A935D
:10402000119B1A782E2A39D000239A46119A1378B8
:10403000683BD9B2122976D88B00C549CB589F4628
:1040400001231C4301321192D6E702231C430132A3
:104050001192D1E704231C4301321192CCE70823CB
:104060001C4301321192C7E710231C430132119205
:10407000C2E711A8FFF726FA0A90D1E71C9B1A1D88
:104080001C921868002804DB0A90119B01331193DD
:10409000C6E702231C4343420A93F6E78022D2007C
:1040A00014435A1C11925A781300303BDBB2092B8F
:1040B00004D92A2A07D000239A46B7E711A8FFF7A8
:1040C00001FA8246B2E71C9B1A1D1C921868002850
:1040D00004DB8246119B01331193A7E70020F8E728
:1040E00080235B002343511C119152786C2A01D02C
:1040F0001C0018E0C0239B001C430131119112E009
:1041000080232343511C11915278682A01D01C004E
:1041100009E0C0231C430131119104E080235B00BE
:104120001C4301321192119B18780300253BDAB22F
:10413000532A00D92CE29300864AD3589F46802305
:104140009B001C4301321192EDE780235B001C436E
:1041500001321192E7E7782809D0582838D06F2823
:1041600038D0622838D010239C430A2600E010265D
:10417000582833D0692803D0642801D00C229443F6
:10418000630501D50122944369282AD0642828D0E8
:10419000A30500D59FE0E30500D5B8E0630600D491
:1041A000CAE01C9A111D1C911168FF220A40059457
:1041B0000A9B0493534603930296002301930092B3
:1041C00043463A0059462800FFF76EFA070027E0F9
:1041D0001026CDE70826CBE70226C9E720221443A4
:1041E000C8E7A30520D4E30550D4630666D51C9A1E
:1041F000111D1C911168FF220A40D317D118594094
:1042000005940A9B0493534603930296D20F01929E
:10421000009143463A0059462800FFF745FA070047
:10422000119B01331193D3E61C9BDA1D07218A43AE
:10423000110008311C91116853689C46DB170C93E0
:104240000D930C9A0D9B100048400E90624653400F
:104250000F930E980F990C9A0D9B801A99410E900E
:104260000F9108940A9B07935346069304960023E4
:1042700005936346DA0F02920090019143463A009B
:1042800059462800FFF76EFA0700C9E71C9A111D6E
:104290001C911268D317D118594005940A9B0493B6
:1042A000534603930296D20F0192009143463A007F
:1042B00059462800FFF7F8F90700B1E7230605D5AE
:1042C0001C9A111D1C910023D25E96E71C9A111DA9
:1042D0001C91126891E71C9BDA1D07218A4311008B
:1042E00008311C9108940A9B079353460693049641
:1042F0000023059302931368546800930194434686
:104300003A0059462800FFF72DFA070088E71C9A63
:10431000111D1C9105940A9B049353460393029626
:10432000002301931368009343463A00594628003E
:10433000FFF7BAF9070073E723060DD51C9A111D84
:104340001C9112681204120C31E7C046E89B04105D
:104350002C9C0410789C04101C9A111D1C9112684E
:1043600025E746281AD01C9B0733072293431A00DF
:1043700008321C9204940A9A0392524602925C6894
:104380001B680093019443463A0059462800FFF702
:1043900065FC0700119B0133119319E620231C4390
:1043A000E1E7672801D0472802D180231B011C4385
:1043B000452801D0472801D120231C431C9B0733EB
:1043C000072293431A0008321C9204940A9A03921B
:1043D000524602925C681B680093019443463A007F
:1043E00059462800FFF730FA0700119B013311935B
:1043F000EEE502231A002240924623421FD00124F8
:104400001C9B1A1D1C927A1C9146187843463A0050
:104410005946A8475346002B16D1119B01331193DF
:104420004F46D5E5561C434659462020B847230041
:1044300032005C1C9D42F5D83D001700E0E70123E7
:104440003A002F000A9DF4E74A46A9460A9D06E075
:10445000571C434659462020C84734003A00661C82
:10446000A542F5D84D469146D7E71C9B1A1D1C92D4
:104470001B6899465346002B00D1013B4E4601E094
:10448000013613003278002A02D05A1E002BF7D1D1
:104490004B46F21A10928023DB0026001E401C427D
:1044A00003D0524501D95346109302231A002240EB
:1044B0000B92234205D03A0037004C46A946554698
:1044C00020E03A00109B5F46B3462E0006E0551CE4
:1044D000434639002020B04723002A005C1C0A997B
:1044E0009942F4D835005E46BB46109437004C46DE
:1044F000A946554606E01D000134561C4346594660
:10450000C84732002078002804D0002FF4D06B1E5A
:10451000002DF0D117004D460B9B002B03D1119BB2
:104520000133119354E50A9F109B06E0561C434645
:1045300059462020A847230032005C1C9F42F5D832
:104540001700ECE721231C431C9B1A1D1C921B68BF
:104550000093059408230493534603931023029376
:104560000023019343463A0059462800FFF79CF880
:104570000700119B013311932AE57C1C43463A0046
:1045800059462520A847119B0133119327001FE5A9
:104590007C1C43463A005946A847119B01331193AE
:1045A000270015E50A4B9A4610E5AA46474502D36F
:1045B00043465A1E00E03A00434659460020D04781
:1045C000380013B0F0BCBB46B246A946A046F0BDC9
:1045D000B53400100EB410B585B0010007AC08CC9E
:1045E00003940122009452420348FFF7E1FC05B016
:1045F00010BC08BC03B01847AD34001000B583B040
:10460000009313000A0001000248FFF7D1FC03B039
:1046100000BDC046AD34001000B585B002900391D6
:104620000121009313004A4202A90248FFF7C0FC8F
:1046300005B000BDB734001001480421014B1847F4
:10464000701400206946001010B5010018231B8863
:1046500014221088984710BD10B5010018231B883C
:1046600016221088984710BDF0B5C64600B5070061
:104670000E0000250123984600E00135B5420AD21C
:10468000AC003C192068FFF7DFFF20600028F4D160
:1046900000239846F1E7404680BCB846F0BD0000D4
:1046A000124A936F9B0815D29066D166002905D0F7
:1046B000FFE7FFE7FFE7516F106F704704B58021F8
:1046C0000906C2175140002800D0C84344F0A4FB9B
:1046D000002104BDF0B5146E556E576F166FFFF7CD
:1046E000E3FF1466556657671667F0BD000000D0FB
:1046F000114A936F9B0813D210665166002905D0AA
:10470000FFE7FFE7FFE7516F106F704704B5002820
:1047100001D00020C04344F07FFB002104BDC0460F
:10472000F0B5146E556E576F166FFFF7E5FF146600
:10473000556657671667F0BD000000D094464E4A94
:10474000926F9208624601D230E0C046F0B54A4E00
:10475000B56F6D08FCD3346E756E776F366F00F0F1
:1047600025F89446444A14665566576716676246AC
:10477000F0BDC0469446404A926F9208624601D20C
:1047800058E0C046F0B53C4EB56F6D08FCD3346EB2
:10479000756E776F366F00F04DF89446364A1466A2
:1047A0005566576716676246F0BDC046002B24DB8E
:1047B00011D000293EDA00B5C943404200D1013191
:1047C00000F038F8C943404200D10131DB43524286
:1047D00000D1013300BD002AEBD1002801D100290E
:1047E00005D00020C90FC90701D1C043410800B559
:1047F00044F0EAFA0022002300BD00B500290ADBDC
:10480000DB43524200D1013300F014F8C943404267
:1048100000D1013100BDC943404200D10131DB4329
:10482000524200D1013300F005F8DB43524200D17F
:10483000013300BD002923D1002B18D1002A0CD050
:10484000BC460D4F38667A6600210023FFE7FFE77C
:10485000FFE77A6F386F67467047002801D0074836
:10486000010000B544F0B0FA0022002300BD0200B0
:104870000B00002000217047000000D0FFFFFFFF69
:10488000002B00D0BFE0130C28D1002AE7D080B461
:10489000114F39667A66FFE7FFE730B4040C7B6F8F
:1048A000396F1B0423433B667A66FFE7FFE7FFE7A8
:1048B000C04684B27B6F3D6F1B0423433B667A6620
:1048C000FFE7FFE7C04600232C042D0C7A6F386FFA
:1048D00000196941B0BC7047000000D0F0B59446A3
:1048E0000025140E01D112020835140F01D1120156
:1048F0000435940F01D192000235D40F01D152003A
:104900000135D40B0134254F7C66254C3C660E0CDA
:1049100093B2FFE7FFE7FFE73C6F6643360C770390
:10492000BE467343DF0B5B04C01AB941130C7343DB
:10493000DB18C91ACE086643360CB64493B27343EB
:104940001F0F1B01C01AB941130C73431F0B1B052A
:10495000C01AB941860D8F023E436643360C092DBD
:1049600024DB520A7243801A7703460A6643360CE8
:1049700016235B1BDE40DF40BF1964466643821B83
:104980007046043506330100D940A840C01900D351
:104990000131A24206D20023F0BD0000000000D089
:1049A000FFFFFFFF121B0130F3D3F1E709277F1B45
:1049B000FE406446A2B27243801A00D20139220C32
:1049C0007243130C1204821A99410B00704604358D
:1049D00013370100F940A840801900D30131002BA2
:1049E00002D1A2420AD2F0BD013000D30131121B24
:1049F000FAD2013BF8D1A24200D2F0BD013000D37F
:104A00000131121BF7E7F0B51C0C00D080E00CB4AC
:104A100000251C0A04D11B02160E3343120208356E
:104A20001C0B04D11B01160F3343120104359C0BE0
:104A300004D19B00960F334392000235DC0B02D168
:104A400092185B4101351C00971864410134464FB0
:104A50007C66464C3C660E0CFFE7FFE7FFE7C0466E
:104A60003C6F6643360C7703BE4697B27743C01B54
:104A700000D20139C01B00D201399FB27743C91B54
:104A8000C91B170C77437E04FF0B801BB941CE086E
:104A90006643360C0C2D33DBB644120B1F053A432C
:104AA0001B0B97B27743C01B00D201399FB27743EB
:104AB000C91B170C77433E043F0C801BB941860D80
:104AC0008F023E43664329277F1BFE400C3D7746FD
:104AD000AF40BF1930BCA2B2ABB272437343801A6D
:104AE0009941220C7243130C1204801A994102005E
:104AF0000B000137001BA941F9D2781E0021F0BD3F
:104B00000C277F1BFE4077467F0BAF40FF19E0E785
:104B100000245D1C07D0144F7D663966FFE7FFE770
:104B2000FFE7FFE73C6F95B29EB265436643401BCB
:104B3000B141150C1E0C6543664336042F0C3E43F1
:104B40002D04401BB141994204D202000B00200009
:104B50000021F0BD01D19042F7D3801A9941013470
:104B60009942F2D3F6E70000000000D0FFFFFFFFFC
:104B700048404140484018B41B4B5B68FC460193D9
:104B800008BD04DFE34E001018B4174B1B68FC4649
:104B9000019308BD00DFED4E00109446134A926F5A
:104BA000920809D2624618B40F4BDB68FC460193A9
:104BB00008BD0CDFA55100100C4AF0B5146E556EFF
:104BC000576F166F6246FFF7EEFF084A1466556688
:104BD00057671667F0BD18B4034B9B68FC460193FA
:104BE00008BD08DF49500010E4410020000000D05B
:104BF000FFB550404240504059404B40594000E0C2
:104C0000FFB5154F4C00640D03D0BC4204D10C031A
:104C100014D80020090D09055C00640D03D0BC42C6
:104C200004D11C030AD800221B0D1B0501264B4092
:104C300009D44B4003D58B4200D18242FFBD99423B
:104C4000FCD19042FFBD0B43DB1803431343F5D067
:104C5000C9434918FFBD0000FF07000000B5FFF77A
:104C6000CFFF01D0002000BD012000BD00B5FFF73F
:104C7000C7FF804100BDC04600B5FFF7C1FF01D9A5
:104C8000002000BD012000BD00B5FFF7B1FF01D934
:104C9000002000BD012000BD00B5FFF7A9FF804145
:104CA00000BD012040054A00121804D85A0012180D
:104CB00001D8002070470120704700207047000095
:104CC0000021002805D17047C1174840401AFAD08A
:104CD000C90713B5064B1B6898470CBC441CA2407F
:104CE0001005120B0349091B09051943114310BD97
:104CF000E44200201F04000010B54C00620D802328
:104D0000D218DB00D21A5B057E2A10DD9E3A13DA38
:104D1000CC170903490819435242D14064000134B9
:104D20001532202A05DAD0400843604310BD002028
:104D300010BD0846604310BDC80FC018013810BD33
:104D400018B4044B5B6AFC46019308BD24DF55533D
:104D500000100000E441002018B4044BDB6DFC4659
:104D6000019308BD5CDF615400100000E4410020A5
:104D7000C94211D300B549004908002200F018F8D3
:104D8000002904D4002240428A41114600BD8021FE
:104D90000906002000BD000018B4044BDB6EFC4681
:104DA000019308BD6CDF635300100000E441002054
:104DB00018B4044B9B6FFC46019308BD78DF7F530A
:104DC00000100000E441002018B4044BDB6FFC46E7
:104DD000019308BD7CDFED5300100000E44100208A
:104DE00070B513231C78012C14D0012C14DC022C78
:104DF00002DC1F4A1F4B9A641F48FFF725FC1F4B1C
:104E0000186070BD99001A481A4A885001331F2B48
:104E1000F8D9EAE70023FAE71948FFF71DFC050077
:104E20001848FFF719FC023803789B007F2B19DD27
:104E3000802229000F4800F099FC022CD7D1124B98
:104E40001A88B5231B029A4209D1104B1A88104BBD
:104E50009A4204D10F4B1A880F4B9A42C7D00020B8
:104E6000FEF7DEF80D4B0E4A32210E48FEF73EF8F3
:104E7000A94E0010E44100204C330000E442002021
:104E8000534400005346000054380000D838000056
:104E9000494600009C38000059460000189E041046
:104EA000CC9E0410789E041007B56046002800D1FF
:104EB00000BE01880A0A0230DF2AFAD1C9B282088C
:104EC00004D3028840880004104300E00068024ACE
:104ED0005050039007BD0000E44100200FB403BC14
:104EE0000CBCF0B50124E407634000E0F0B50C0D04
:104EF000CF0F661E3605891B640503D3C9434042A4
:104F000000D30131640D03D0661CF60A07D0E41B00
:104F100000207F00791C89078912803C24031D0D25
:104F2000DF0F6E1E36059B1B6D0503D3DB4352421C
:104F300000D301336D0D03D06E1CF60A07D0ED1BB4
:104F400000227F007B1C9B079B12803D2D032F1BA3
:104F5000661B58D4A446202E46DA20371400BC40E5
:104F60001D00BD40F24033412A4380185941CB0F08
:104F700005D0C943C04300226442504151416246BA
:104F80004D0D28D10D0D07D100281FD02419404107
:104F90004941013A0D0DF9D0640006D3013000D328
:104FA0000131002C01D140084000013A0BD4941C7F
:104FB000E40A04D112051144DB071944F0BDD907F6
:104FC000204B194300E0D9070020F0BD0029DDD1B6
:104FD000002CDBD1F0BD0132C6074008CD072843C5
:104FE0004908002EE1D0D9E73C2E29DA203E40378F
:104FF0001400BC4000D00124F24014431A00BB400E
:105000001C43D317ACE7AC46202F08DA2036040047
:10501000B4400D00B540F84039412843A5E73C2F86
:105020000CDA203F40360400B44000D00124F840A0
:1050300004430800B1400C43C117EAE7100019000F
:10504000002494E70000F07FF0B50C0D661E3605D5
:10505000891BE60A6405640D02D0651CED0A04D0C4
:10506000002001210905803C2403A4461C0D671E75
:105070003F05DB1BE70A6405640D02D0651CED0AE1
:1050800004D0002201231B05803C240377406444A4
:1050900097B484B296B27443070C7E43150C6F43E9
:1050A00080B26843361802D3012000043F18300450
:1050B000350C00197D41844688B29AB250430C0CDD
:1050C00062431F0C7C438EB27E43921902D30126A9
:1050D0003604A4191604170C3618674101BC81B2B6
:1050E0009AB25143040C62431B0C5C4380B2584398
:1050F000121802D30120000424181004130C4018C5
:1051000063412D185E410020474106BC88B293B22E
:1051100058430C0C6343120C544389B251435B183F
:1051200002D301210904641819041A0C09186241F8
:105130006D1856410020474118BCF902720D114309
:10514000F0026A0D1043ED020A0D03D16D194041C2
:105150004941013B124E9B1B7600B3420ED26D00BB
:1051600007D30130002671416646354301D140081E
:1051700040001B05C918E4072144F0BD0BDA0133D8
:1051800006D1013004D101314F0D01D04908F2E7B9
:10519000E1070020F0BD013631050020EBE70000FB
:1051A000FF030000F0B51C0D671E3F05DB1BE70A7F
:1051B0006405640D02D0661CF60A04D000220123A7
:1051C0001B05803C2403D0252D060026F6432E66C1
:1051D0001E096E66CE0FF619B44649004F0D02D077
:1051E0007E1CF60A03D000200021403F3F033E1BF7
:1051F000B600B444013F7F05C91B49082E6F013634
:1052000076089C02950D25437543ED137543AD1348
:1052100001356D10F603761B0CB4CC02450D2C4302
:10522000A2B2B3B25A43270C7B43350C6F43A4B2EE
:105230006C431B1902D3012424043F191C041D0CC8
:10524000A4187D4124196D41009A91B2ACB261431A
:10525000170C7C432B0C5F4392B25A43A41802D321
:1052600001221204BF182204230C52187B41019C16
:105270006C431B19520ED9010A434401A01A81B292
:10528000B2B2514303145A43360C734387B2774387
:10529000D617D21900277E4136049B191704160C25
:1052A0007F185E417316ED18F301002680337541B7
:1052B000A90F06D16400690AE8055B0A184309D200
:1052C0002FE00422944480337541A90AA8059B0A63
:1052D000184326D3404149412404009A019B0D0004
:1052E0005543641B4343E41A95B286B27543170CC9
:1052F0007E43030C5F4392B25A43B61802D3012295
:105300001204BF183204330C52197B4152429C41A3
:10531000002C02D40022013051414008CA0710433A
:10532000490802B06246D7079210084BD218084BC2
:105330009A4203D212058918C919F0BD0020002A2B
:1053400001DC3900F0BD01331905F5E7FD0300006C
:10535000FE070000002200B5203200F010F808001F
:1053600000BD002200B500F00CF8CA179A4200D127
:1053700000BDD8430121C907414000BD00220B15E3
:105380000AD410B5944600F0A7F81414013400DADA
:105390000021CB17144C20470020002170476244A5
:1053A000343A0CD40C2A07DA04009140904052425F
:1053B0002032D440214310BDD843D94310BD203200
:1053C00007D40C469440524220321141D040204331
:1053D00010BD0800C917203203D4524220321041B8
:1053E00010BD1800190010BD9F5300104A00520D47
:1053F000144BD21A13DDFF2A1EDAD205CB0FDB07BE
:105400001A43C300400F0903490A084310435B00D5
:1054100001D301D0013070474308FBD2704702D05E
:10542000C80FC00770470A0312130132F8D1420FA8
:10543000072AF5D1012200E0FF22C80F00028018E0
:10544000C00570478003000000210A00002104E02D
:1054500000210A00C11704E00022002306E0C04634
:105460000022CB1758405940C01A994130B5184C0A
:10547000A21A002903D1010010D00020203A4C15B7
:1054800012D104D2013A001849414C0DFAD3114C03
:10549000A24204D212058918DB07C91830BDD243D5
:1054A000520D00200021F5E703D4013A00184941CC
:1054B000FBD50B324405C00A4D052843C90A6400D8
:1054C00003D0002460416141E1E7E0D34408F8E7FC
:1054D00032040000FE0700000A0DCC0F531E1B050E
:1054E000C91A520503D3C943404200D30131520DBA
:1054F00003D0531CDB0A07D0121B00206400611C80
:1055000089078912803A1203014BD21A70470000B2
:10551000FF03000051434343C9188C46110C83B26A
:105520004B4310B4040C614392B280B250436243C7
:105530001C041B0C001910BC59411304120CC01898
:10554000514161447047000007B548404140484020
:1055500001E0C04607B54200120E03D0FF2A03D176
:10556000420218D8C00DC0054A00120E03D0FF2A0F
:1055700003D14A020FD8C90DC9050122414005D403
:10558000414001D5814207BD884207BD014349180A
:1055900001D0C043001807BD00B5FFF7DBFF01D005
:1055A000002000BD012000BD00B5FFF7D3FF01D9E9
:1055B000002000BD012000BD01231B064200D218BF
:1055C00004D84A00D21801D8002070470120704743
:1055D00070B513231D782A48FFF73EF80400012D0B
:1055E00011D0012D09DDA31E1B789B007F2B40DD10
:1055F00080222100234800F0B9F82348FFF724F85F
:10560000224B186070BD542201001E4800F0AEF815
:105610001F4B1A881F4B9A421CD1A7239B011A8843
:105620001D4B9A4216D11D4B1A881D4B9A4211D11F
:105630001C4B1A8894239B019A420BD11A4B1A884F
:105640001A4B9A4206D11A4B1A681A4B9A4201D148
:10565000152307E01848FDF7E3FC99001748094AAD
:10566000885001331F2BF8D9144A064B1A62DA61AD
:10567000B7E7134B134A42211348FDF737FCC046E6
:1056800053460000E84200204C330000E442002072
:10569000EE290000C40F0000C20D0000962B000090
:1056A000C0B50000182B0000CC2A000010B5000087
:1056B000FC2C000051ED8764C4D40410CD560010BA
:1056C000E09E0410649F0410149F041007B5604608
:1056D000002800D100BE01880A0A0230DF2AFAD170
:1056E000C9B2820804D3028840880004104300E055
:1056F0000068024A5050039007BD0000E8420020B5
:1057000010B5040036F09AF8002804D00419034BB1
:105710009C4200D810BD0248FDF782FC0000042026
:10572000789F041010B50C0036F002FD002804D05C
:105730000419034B9C4200D810BD0248FDF770FCD1
:1057400000000420789F041010B536F081F810BDD9
:1057500001480421014B18478014002069460010BD
:10576000014B1B681847000080140020014B5B6848
:10577000184700008014002010B5FFF7C1FF10BDCE
:1057800010B5FFF7BDFF10BD10B5FFF7DDFF10BD71
:1057900010B5FFF7D9FF10BD10B5FFF7D5FF10BD4D
:1057A00010B50300080011001B68984710BD0000E9
:1057B000F8B507000D001600437C002B02D0002432
:1057C00000200CE003681100280098472DE03B7C86
:1057D00010E0022115483B689847601C0134B44230
:1057E00014DA002CF3DD2B19013B1B780D3B5A42D8
:1057F0005341DBB22A5D0A2AF0D1002BEED1A04240
:10580000E7DA211A28183B689847E2E7B04203DA42
:10581000311A28183B689847002E06DDAD19013D66
:105820002B780D3B5A4253413B74F8BDE89F04105E
:1058300070B505000368002B16D00C4B1C6805E002
:10584000290004C92000FFF7B3FFE468002C09D049
:105850002368002BF9D0064B1B68002BF0D0A34225
:10586000F3D1EDE700232B6070BDC046A43D0020BE
:10587000AC3D002070B505000C000B68802B05D0F6
:1058800021684B1C23606418257170BD0800FFF768
:10589000CFFFF5E7F0B583B007000E00009201934B
:1058A00028E0A368002B04D0310038009847002876
:1058B00027DCE468002C06D0134B1D68002DF0D0C7
:1058C000A542F6D1EDE70099019A104B5B6A9A4226
:1058D00009D80E48806A88420FD29A4201D001232B
:1058E00002E0002300E00023002B08D1012000216A
:1058F000FCF79AFF064B1C68DCE70123F4E7012064
:10590000404203B0F0BDC046AC3D00200040054021
:10591000A43D002010B582B0D0231B0600241C57E4
:1059200001A9074843F088FA002806D1019B9C4250
:1059300003D0034843F0C0FA012002B010BDC046B6
:10594000781F002010B5024843F036FA10BDC0465B
:10595000781F0020F0B5CE46474680B583B00600DC
:105960000D0090461C00FFF7D5FF81466B1C05D04B
:10597000002C08D0194F1A4B1C6807E0300037F094
:10598000C9FE0500F4E7174FF5E7E468002C17D0CF
:105990002368002BF9D0144B1B68002B01D0A342C5
:1059A000F3D12A0031002000B8474346002BECD049
:1059B0006B46D91D0A230B7001222000B847E4E78B
:1059C0004B46002B07D16B1E9D41E8B203B0C0BC13
:1059D000B946B046F0BDFFF7B5FFF4E7A157001098
:1059E000A43D0020B1570010AC3D002010B50300CD
:1059F00008001100002B05D1044B1A685B68FFF703
:105A000049FF10BD01204042FBE7C04698960410B4
:105A100010B5030008001400013B012B06D8002339
:105A200000222100FFF796FF200010BD0120404218
:105A3000FBE70000094A01E00C331A001368002B51
:105A400008D08342F8D1002907D1C368136000232E
:105A5000C36002E0002900D010607047A43D002020
:105A600010B5064B1C6801E09847E468002C03D091
:105A70006368002BF8D1F8E710BDC046A43D0020B4
:105A800070B5050037F046FE040000230122010036
:105A90002800FFF75FFFFFF7E3FF200070BD000065
:105AA00070B5A2B004000E00FFF734FF0500842299
:105AB000002101A8FFF754FE3300220001A9084885
:105AC000FEF7AAFD040001A8FFF7B2FEFFF7C8FF2A
:105AD000002D02D1200022B070BDFFF733FFF9E79F
